:040800000AEF04F007
:10080800FACF01F0FBCF02F00CED04F065EF04F035
:100818000600E9CF03F0EACF04F0E1CF05F0E2CF1C
:1008280006F0D9CF07F0DACF08F0F3CF09F0F4CF0C
:100838000AF0F6CF0BF0F7CF0CF0F8CF0DF0F5CFAC
:100848000EF09EA012D0200ECE6ED10ECF6E0F4AA3
:10085800102AE80E0F5C030E1058D8A005D0897A2C
:10086800000E106E000E0F6E9E900EC0F5FF0DC0AC
:10087800F8FF0CC0F7FF0BC0F6FF0AC0F4FF09C071
:10088800F3FF08C0DAFF07C0D9FF06C0E2FF05C0C2
:10089800E1FF04C0EAFF03C0E9FF02C0FBFF01C09B
:1008A800FAFF1100000E936E929AF28EF28C9D80E0
:1008B8009E90800ECD6E200ECE6ED10ECF6ECD8066
:0C08C800FFD7106A0F6A000156EF04F021
:020000040020DA
:08000000FFFFFFFFFFFFFFFF00
:020000040030CA
:0E00000000051F1FFF8385FF0FC00FE00F409C
:00000001FF
